{
  "_format": "hh-sol-artifact-1",
  "contractName": "JavaScriptQuiz",
  "sourceName": "contracts/JavaScriptQuiz.sol",
  "abi": [
    {
      "inputs": [
        {
          "internalType": "bytes32[]",
          "name": "_answerHash",
          "type": "bytes32[]"
        }
      ],
      "stateMutability": "nonpayable",
      "type": "constructor"
    },
    {
      "anonymous": false,
      "inputs": [
        {
          "indexed": false,
          "internalType": "uint256",
          "name": "goodAnswers",
          "type": "uint256"
        }
      ],
      "name": "AnswerResult",
      "type": "event"
    },
    {
      "inputs": [
        {
          "internalType": "string[]",
          "name": "_responses",
          "type": "string[]"
        }
      ],
      "name": "answerQuiz",
      "outputs": [],
      "stateMutability": "nonpayable",
      "type": "function"
    },
    {
      "inputs": [],
      "name": "getQuizzes",
      "outputs": [
        {
          "components": [
            {
              "internalType": "string",
              "name": "statement",
              "type": "string"
            },
            {
              "internalType": "string[4]",
              "name": "answers",
              "type": "string[4]"
            }
          ],
          "internalType": "struct QuizLibrary.Quiz[]",
          "name": "",
          "type": "tuple[]"
        }
      ],
      "stateMutability": "view",
      "type": "function"
    },
    {
      "inputs": [
        {
          "internalType": "uint256",
          "name": "",
          "type": "uint256"
        }
      ],
      "name": "quizzes",
      "outputs": [
        {
          "internalType": "string",
          "name": "statement",
          "type": "string"
        }
      ],
      "stateMutability": "view",
      "type": "function"
    }
  ],
  "bytecode": "0x60806040523480156200001157600080fd5b50604051620025a5380380620025a5833981810160405281019062000037919062000f6f565b33600260006101000a81548173ffffffffffffffffffffffffffffffffffffffff021916908373ffffffffffffffffffffffffffffffffffffffff16021790555080600190805190602001906200009092919062000c5a565b50600060405180604001604052806040518060400160405280601a81526020017f5175276573742d636520717565206c652057656220332e30203f000000000000815250815260200160405180608001604052806040518060600160405280603881526020016200234b6038913981526020016040518060400160405280601c81526020017f556e2072c3a97365617520736f6369616c20706f70756c616972652e00000000815250815260200160405180608001604052806045815260200162002306604591398152602001604051806060016040528060368152602001620025436036913981525081525090806001815401808255809150506001900390600052602060002090600502016000909190919091506000820151816000019081620001bd91906200120b565b50602082015181600101906004620001d792919062000cac565b505050600060405180604001604052806040518060600160405280602b8152602001620021eb602b9139815260200160405180608001604052806040518060600160405280602c815260200162002579602c91398152602001604051806060016040528060308152602001620022d66030913981526020016040518060600160405280603281526020016200216c6032913981526020016040518060600160405280602d815260200162001e8b602d913981525081525090806001815401808255809150506001900390600052602060002090600502016000909190919091506000820151816000019081620002ce91906200120b565b50602082015181600101906004620002e892919062000cac565b505050600060405180604001604052806040518060400160405280602081526020017f5175276573742d636520717527756e20736d61727420636f6e7472616374203f815250815260200160405180608001604052806040518060600160405280602e815260200162002515602e9139815260200160405180606001604052806023815260200162001fa36023913981526020016040518060600160405280602d815260200162001e5e602d913981526020016040518060600160405280603e8152602001620024d7603e913981525081525090806001815401808255809150506001900390600052602060002090600502016000909190919091506000820151816000019081620003fb91906200120b565b506020820151816001019060046200041592919062000cac565b50505060006040518060400160405280604051806080016040528060458152602001620021276045913981526020016040518060800160405280604051806080016040528060498152602001620024466049913981526020016040518060600160405280603781526020016200205d603791398152602001604051806060016040528060348152602001620023b860349139815260200160405180608001604052806048815260200162001f0d60489139815250815250908060018154018082558091505060019003906000526020600020906005020160009091909190915060008201518160000190816200050c91906200120b565b506020820151816001019060046200052692919062000cac565b50505060006040518060400160405280604051806080016040528060458152602001620021276045913981526020016040518060800160405280604051806080016040528060498152602001620024466049913981526020016040518060600160405280603781526020016200205d603791398152602001604051806060016040528060348152602001620023b860349139815260200160405180608001604052806048815260200162001f0d60489139815250815250908060018154018082558091505060019003906000526020600020906005020160009091909190915060008201518160000190816200061d91906200120b565b506020820151816001019060046200063792919062000cac565b505050600060405180604001604052806040518060a001604052806066815260200162002270606691398152602001604051806080016040528060405180606001604052806027815260200162001fc6602791398152602001604051806060016040528060358152602001620022166035913981526020016040518060600160405280602581526020016200224b6025913981526020016040518060600160405280603581526020016200238360359139815250815250908060018154018082558091505060019003906000526020600020906005020160009091909190915060008201518160000190816200072e91906200120b565b506020820151816001019060046200074892919062000cac565b5050506000604051806040016040528060405180608001604052806055815260200162001eb860559139815260200160405180608001604052806040518060400160405280600781526020017f507974686f6e2e0000000000000000000000000000000000000000000000000081525081526020016040518060400160405280600b81526020017f4a6176615363726970742e00000000000000000000000000000000000000000081525081526020016040518060400160405280600981526020017f536f6c69646974792e000000000000000000000000000000000000000000000081525081526020016040518060400160405280600581526020017f527562792e00000000000000000000000000000000000000000000000000000081525081525081525090806001815401808255809150506001900390600052602060002090600502016000909190919091506000820151816000019081620008af91906200120b565b50602082015181600101906004620008c992919062000cac565b505050600060405180604001604052806040518060800160405280604d81526020016200219e604d913981526020016040518060800160405280604051806060016040528060318152602001620020946031913981526020016040518060400160405280601a81526020017f556e65206361737175657474652072c3a973697374616e74652e000000000000815250815260200160405180606001604052806028815260200162001f7b6028913981526020016040518060400160405280601c81526020017f556e206c616e676167652064652070726f6772616d6d6174696f6e2e0000000081525081525081525090806001815401808255809150506001900390600052602060002090600502016000909190919091506000820151816000019081620009f891906200120b565b5060208201518160010190600462000a1292919062000cac565b5050506000604051806040016040528060405180608001604052806046815260200162001fed60469139815260200160405180608001604052806040518060600160405280602a815260200162002033602a91398152602001604051806060016040528060278152602001620023ec6027913981526020016040518060600160405280603b8152602001620020c5603b9139815260200160405180606001604052806027815260200162002100602791398152508152509080600181540180825580915050600190039060005260206000209060050201600090919091909150600082015181600001908162000b0991906200120b565b5060208201518160010190600462000b2392919062000cac565b505050600060405180604001604052806040518060600160405280603381526020016200241360339139815260200160405180608001604052806040518060600160405280602181526020016200248f602191398152602001604051806060016040528060278152602001620024b06027913981526020016040518060400160405280601e81526020017f556e20706f727465666575696c6c6520c3a96c656374726f6e697175652e0000815250815260200160405180606001604052806026815260200162001f55602691398152508152509080600181540180825580915050600190039060005260206000209060050201600090919091909150600082015181600001908162000c3691906200120b565b5060208201518160010190600462000c5092919062000cac565b50505050620012f2565b82805482825590600052602060002090810192821562000c99579160200282015b8281111562000c9857825182559160200191906001019062000c7b565b5b50905062000ca8919062000cff565b5090565b826004810192821562000cec579160200282015b8281111562000ceb57825182908162000cda91906200120b565b509160200191906001019062000cc0565b5b50905062000cfb919062000d1e565b5090565b5b8082111562000d1a57600081600090555060010162000d00565b5090565b5b8082111562000d42576000818162000d38919062000d46565b5060010162000d1f565b5090565b50805462000d549062000ffa565b6000825580601f1062000d68575062000d89565b601f01602090049060005260206000209081019062000d88919062000d8c565b5b50565b5b8082111562000da757600081600090555060010162000d8d565b5090565b6000604051905090565b600080fd5b600080fd5b600080fd5b6000601f19601f8301169050919050565b7f4e487b7100000000000000000000000000000000000000000000000000000000600052604160045260246000fd5b62000e0f8262000dc4565b810181811067ffffffffffffffff8211171562000e315762000e3062000dd5565b5b80604052505050565b600062000e4662000dab565b905062000e54828262000e04565b919050565b600067ffffffffffffffff82111562000e775762000e7662000dd5565b5b602082029050602081019050919050565b600080fd5b6000819050919050565b62000ea28162000e8d565b811462000eae57600080fd5b50565b60008151905062000ec28162000e97565b92915050565b600062000edf62000ed98462000e59565b62000e3a565b9050808382526020820190506020840283018581111562000f055762000f0462000e88565b5b835b8181101562000f32578062000f1d888262000eb1565b84526020840193505060208101905062000f07565b5050509392505050565b600082601f83011262000f545762000f5362000dbf565b5b815162000f6684826020860162000ec8565b91505092915050565b60006020828403121562000f885762000f8762000db5565b5b600082015167ffffffffffffffff81111562000fa95762000fa862000dba565b5b62000fb78482850162000f3c565b91505092915050565b600081519050919050565b7f4e487b7100000000000000000000000000000000000000000000000000000000600052602260045260246000fd5b600060028204905060018216806200101357607f821691505b60208210810362001029576200102862000fcb565b5b50919050565b60008190508160005260206000209050919050565b60006020601f8301049050919050565b600082821b905092915050565b600060088302620010937fffffffffffffffffffffffffffffffffffffffffffffffffffffffffffffffff8262001054565b6200109f868362001054565b95508019841693508086168417925050509392505050565b6000819050919050565b6000819050919050565b6000620010ec620010e6620010e084620010b7565b620010c1565b620010b7565b9050919050565b6000819050919050565b6200110883620010cb565b620011206200111782620010f3565b84845462001061565b825550505050565b600090565b6200113762001128565b62001144818484620010fd565b505050565b5b818110156200116c57620011606000826200112d565b6001810190506200114a565b5050565b601f821115620011bb5762001185816200102f565b620011908462001044565b81016020851015620011a0578190505b620011b8620011af8562001044565b83018262001149565b50505b505050565b600082821c905092915050565b6000620011e060001984600802620011c0565b1980831691505092915050565b6000620011fb8383620011cd565b9150826002028217905092915050565b620012168262000fc0565b67ffffffffffffffff81111562001232576200123162000dd5565b5b6200123e825462000ffa565b6200124b82828562001170565b600060209050601f8311600181146200128357600084156200126e578287015190505b6200127a8582620011ed565b865550620012ea565b601f19841662001293866200102f565b60005b82811015620012bd5784890151825560018201915060208501945060208101905062001296565b86831015620012dd5784890151620012d9601f891682620011cd565b8355505b6001600288020188555050505b505050505050565b610b5c80620013026000396000f3fe608060405234801561001057600080fd5b50600436106100415760003560e01c80635ecd45b91461004657806388409afa14610064578063b8101c6614610094575b600080fd5b61004e6100b0565b60405161005b919061063a565b60405180910390f35b61007e600480360381019061007991906106a6565b610268565b60405161008b919061071d565b60405180910390f35b6100ae60048036038101906100a9919061095a565b61031e565b005b60606000805480602002602001604051908101604052809291908181526020016000905b8282101561025f5783829060005260206000209060050201604051806040016040529081600082018054610107906109d2565b80601f0160208091040260200160405190810160405280929190818152602001828054610133906109d2565b80156101805780601f1061015557610100808354040283529160200191610180565b820191906000526020600020905b81548152906001019060200180831161016357829003601f168201915b5050505050815260200160018201600480602002604051908101604052809291906000905b828210156102485783820180546101bb906109d2565b80601f01602080910402602001604051908101604052809291908181526020018280546101e7906109d2565b80156102345780601f1061020957610100808354040283529160200191610234565b820191906000526020600020905b81548152906001019060200180831161021757829003601f168201915b5050505050815260200190600101906101a5565b5050505081525050815260200190600101906100d4565b50505050905090565b6000818154811061027857600080fd5b906000526020600020906005020160009150905080600001805461029b906109d2565b80601f01602080910402602001604051908101604052809291908181526020018280546102c7906109d2565b80156103145780601f106102e957610100808354040283529160200191610314565b820191906000526020600020905b8154815290600101906020018083116102f757829003601f168201915b5050505050905081565b6000805b82518110156103b2576001818154811061033f5761033e610a03565b5b906000526020600020015483828151811061035d5761035c610a03565b5b60200260200101516040516020016103759190610a6e565b604051602081830303815290604052805190602001200361039f57818061039b90610ab4565b9250505b80806103aa90610ab4565b915050610322565b507f75980556ea06d593fdb748282e7174aea05d99becb1d89dbfd291581971e723d816040516103e29190610b0b565b60405180910390a15050565b600081519050919050565b600082825260208201905092915050565b6000819050602082019050919050565b600081519050919050565b600082825260208201905092915050565b60005b83811015610454578082015181840152602081019050610439565b60008484015250505050565b6000601f19601f8301169050919050565b600061047c8261041a565b6104868185610425565b9350610496818560208601610436565b61049f81610460565b840191505092915050565b600060049050919050565b600081905092915050565b6000819050919050565b60006104d68383610471565b905092915050565b6000602082019050919050565b60006104f6826104aa565b61050081856104b5565b935083602082028501610512856104c0565b8060005b8581101561054e578484038952815161052f85826104ca565b945061053a836104de565b925060208a01995050600181019050610516565b50829750879550505050505092915050565b6000604083016000830151848203600086015261057d8282610471565b9150506020830151848203602086015261059782826104eb565b9150508091505092915050565b60006105b08383610560565b905092915050565b6000602082019050919050565b60006105d0826103ee565b6105da81856103f9565b9350836020820285016105ec8561040a565b8060005b85811015610628578484038952815161060985826105a4565b9450610614836105b8565b925060208a019950506001810190506105f0565b50829750879550505050505092915050565b6000602082019050818103600083015261065481846105c5565b905092915050565b6000604051905090565b600080fd5b600080fd5b6000819050919050565b61068381610670565b811461068e57600080fd5b50565b6000813590506106a08161067a565b92915050565b6000602082840312156106bc576106bb610666565b5b60006106ca84828501610691565b91505092915050565b600082825260208201905092915050565b60006106ef8261041a565b6106f981856106d3565b9350610709818560208601610436565b61071281610460565b840191505092915050565b6000602082019050818103600083015261073781846106e4565b905092915050565b600080fd5b7f4e487b7100000000000000000000000000000000000000000000000000000000600052604160045260246000fd5b61077c82610460565b810181811067ffffffffffffffff8211171561079b5761079a610744565b5b80604052505050565b60006107ae61065c565b90506107ba8282610773565b919050565b600067ffffffffffffffff8211156107da576107d9610744565b5b602082029050602081019050919050565b600080fd5b600080fd5b600067ffffffffffffffff8211156108105761080f610744565b5b61081982610460565b9050602081019050919050565b82818337600083830152505050565b6000610848610843846107f5565b6107a4565b905082815260208101848484011115610864576108636107f0565b5b61086f848285610826565b509392505050565b600082601f83011261088c5761088b61073f565b5b813561089c848260208601610835565b91505092915050565b60006108b86108b3846107bf565b6107a4565b905080838252602082019050602084028301858111156108db576108da6107eb565b5b835b8181101561092257803567ffffffffffffffff811115610900576108ff61073f565b5b80860161090d8982610877565b855260208501945050506020810190506108dd565b5050509392505050565b600082601f8301126109415761094061073f565b5b81356109518482602086016108a5565b91505092915050565b6000602082840312156109705761096f610666565b5b600082013567ffffffffffffffff81111561098e5761098d61066b565b5b61099a8482850161092c565b91505092915050565b7f4e487b7100000000000000000000000000000000000000000000000000000000600052602260045260246000fd5b600060028204905060018216806109ea57607f821691505b6020821081036109fd576109fc6109a3565b5b50919050565b7f4e487b7100000000000000000000000000000000000000000000000000000000600052603260045260246000fd5b600081905092915050565b6000610a488261041a565b610a528185610a32565b9350610a62818560208601610436565b80840191505092915050565b6000610a7a8284610a3d565b915081905092915050565b7f4e487b7100000000000000000000000000000000000000000000000000000000600052601160045260246000fd5b6000610abf82610670565b91507fffffffffffffffffffffffffffffffffffffffffffffffffffffffffffffffff8203610af157610af0610a85565b5b600182019050919050565b610b0581610670565b82525050565b6000602082019050610b206000830184610afc565b9291505056fea26469706673582212200ff145162fdb3e21f91be3c2b10400c99bb2211f13d77a555aca97ee7ce8367164736f6c63430008130033556e206163636f72642076657262616c20656e747265207061727469657320636f6e7472616374616e7465732e52c3a96475697265206c61207461696c6c6520646573206669636869657273206d756c74696dc3a9646961732e5175656c206c616e676167652064652070726f6772616d6d6174696f6e2065737420736f7576656e74207574696c6973c3a920706f757220c3a963726972652064657320736d61727420636f6e747261637473203f4c657320646f6e6ec3a9657320736f6e742073746f636bc3a9657320756e697175656d656e74207375722064657320736572766575727320676f757665726e656d656e746175782e556e206e6f75766561752070726f746f636f6c6520646520636f6d6d756e69636174696f6e2e556e2070726f746f636f6c652064652073c3a96375726974c3a92073757220496e7465726e65742e556e20646f63756d656e74206a757269646971756520747261646974696f6e6e656c2e496c206ec3a96365737369746520756e65207369676e6174757265206d616e757363726974652e5175656c20657374206c652072c3b46c65207072696e636970616c206465204d6574614d61736b2064616e73206c27c3a9636f73797374c3a86d6520457468657265756d203f47c3a9726572206c6573206d6f747320646520706173736520646573207574696c69736174657572732e546f75746573206c657320646f6e6ec3a9657320736f6e742073746f636bc3a965732073757220756e207365756c20736572766575722e556e20656e7669726f6e6e656d656e742064652064c3a976656c6f7070656d656e7420706f757220457468657265756d2e466f75726e697220756e6520696e74657266616365207574696c6973617465757220706f7572206c657320736d61727420636f6e7472616374732e53746f636b65722064657320666963686965727320737572206c6120626c6f636b636861696e2e436f6d6d656e7420666f6e6374696f6e6e65206c612064c3a963656e7472616c69736174696f6e2064616e73206c6520636f6e74657874652064752057656220332e30203f4175676d656e746572206c612072c3a9736f6c7574696f6e2064657320c3a96372616e732064276f7264696e61746575722e5175276573742d63652071756520486172646861742064616e73206c6520636f6e74657874652064752064c3a976656c6f7070656d656e7420646520736d61727420636f6e747261637473203f5175656c20657374206c65207072696e636970616c206f626a65637469662064752057656220332e30203f496c20657374206578c3a9637574c3a9206175746f6d6174697175656d656e742073616e7320696e7465726dc3a96469616972652e496c207065757420c3aa74726520616e6e756cc3a920c3a020746f7574206d6f6d656e742e5175656c6c6520657374206c6120636172616374c3a97269737469717565207072696e636970616c65206427756e20736d61727420636f6e74726163742070617220726170706f727420c3a020756e20636f6e7472617420747261646974696f6e6e656c203f44c3a963656e7472616c69736572206c6573206170706c69636174696f6e73206574206c657320646f6e6ec3a965732e556e206e6f75766561752070726f746f636f6c6520646520636f6d6d756e69636174696f6e20706f7572206c6520636f75727269657220c3a96c656374726f6e697175652e556e652076657273696f6e20616dc3a96c696f72c3a965206475206e61766967617465757220496e7465726e6574204578706c6f7265722e496c206573742073746f636bc3a92073757220756e65206261736520646520646f6e6ec3a965732063656e7472616c6973c3a9652e556e207365756c207574696c697361746575722061206c6520636f6e7472c3b46c6520746f74616c2064752072c3a9736561752e466163696c69746572206c27c3a96368616e67652064652063727970746f6d6f6e6e616965732e5175276573742d636520717565205365706f6c69612064616e73206c6520636f6e74657874652064752057656220332e30203f4c657320646f6e6ec3a9657320736f6e742072c3a9706172746965732073757220706c75736965757273206ec5937564732073616e7320636f6e7472c3b46c652063656e7472616c2e556e2072c3a97365617520736f6369616c2064c3a963656e7472616c6973c3a92e556e206c616e676167652064652070726f6772616d6d6174696f6e20626c6f636b636861696e2e556e2070726f6772616d6d6520696e666f726d617469717565206175746f2d6578c3a963757461626c652073757220756e6520626c6f636b636861696e2e556e20636f6e7472617420696e74656c6c6967656e7420656e747265206465757820656e7472657072697365732e556e6520c3a9766f6c7574696f6e20647520576562207665727320756e20496e7465726e65742064c3a963656e7472616c6973c3a92e416dc3a96c696f726572206c61207669746573736520646520636f6e6e6578696f6e20496e7465726e65742e",
  "linkReferences": {},
  "deployedLinkReferences": {}
}