{
  "_format": "hh-sol-artifact-1",
  "contractName": "JavaScriptQuiz",
  "sourceName": "contracts/JavaScriptQuiz.sol",
  "abi": [
    {
      "inputs": [
        {
          "internalType": "bytes32",
          "name": "_answerHash",
          "type": "bytes32"
        }
      ],
      "stateMutability": "nonpayable",
      "type": "constructor"
    },
    {
      "anonymous": false,
      "inputs": [
        {
          "indexed": false,
          "internalType": "address",
          "name": "responder",
          "type": "address"
        }
      ],
      "name": "CorrectAnswer",
      "type": "event"
    },
    {
      "anonymous": false,
      "inputs": [
        {
          "indexed": false,
          "internalType": "address",
          "name": "responder",
          "type": "address"
        }
      ],
      "name": "WrongAnswer",
      "type": "event"
    },
    {
      "inputs": [
        {
          "internalType": "string",
          "name": "_response",
          "type": "string"
        }
      ],
      "name": "answerQuiz",
      "outputs": [],
      "stateMutability": "nonpayable",
      "type": "function"
    },
    {
      "inputs": [
        {
          "internalType": "uint256",
          "name": "",
          "type": "uint256"
        }
      ],
      "name": "choices",
      "outputs": [
        {
          "internalType": "string",
          "name": "",
          "type": "string"
        }
      ],
      "stateMutability": "view",
      "type": "function"
    },
    {
      "inputs": [],
      "name": "question",
      "outputs": [
        {
          "internalType": "string",
          "name": "",
          "type": "string"
        }
      ],
      "stateMutability": "view",
      "type": "function"
    },
    {
      "inputs": [
        {
          "internalType": "string",
          "name": "_newQuestion",
          "type": "string"
        },
        {
          "internalType": "string[4]",
          "name": "_newChoices",
          "type": "string[4]"
        },
        {
          "internalType": "bytes32",
          "name": "_newAnswerHash",
          "type": "bytes32"
        }
      ],
      "name": "updateQuiz",
      "outputs": [],
      "stateMutability": "nonpayable",
      "type": "function"
    }
  ],
  "bytecode": "0x60806040526040518060600160405280603181526020016200141c60319139600090816200002e919062000513565b5060405180608001604052806040518060400160405280600281526020017f323300000000000000000000000000000000000000000000000000000000000081525081526020016040518060400160405280600181526020017f350000000000000000000000000000000000000000000000000000000000000081525081526020016040518060400160405280600981526020017f756e646566696e6564000000000000000000000000000000000000000000000081525081526020016040518060400160405280600581526020017f4572726f72000000000000000000000000000000000000000000000000000000815250815250600190600462000136929190620001b9565b503480156200014457600080fd5b506040516200144d3803806200144d83398181016040528101906200016a91906200063a565b33600660006101000a81548173ffffffffffffffffffffffffffffffffffffffff021916908373ffffffffffffffffffffffffffffffffffffffff16021790555080600581905550506200066c565b8260048101928215620001f9579160200282015b82811115620001f8578251829081620001e7919062000513565b5091602001919060010190620001cd565b5b5090506200020891906200020c565b5090565b5b8082111562000230576000818162000226919062000234565b506001016200020d565b5090565b508054620002429062000302565b6000825580601f1062000256575062000277565b601f0160209004906000526020600020908101906200027691906200027a565b5b50565b5b80821115620002955760008160009055506001016200027b565b5090565b600081519050919050565b7f4e487b7100000000000000000000000000000000000000000000000000000000600052604160045260246000fd5b7f4e487b7100000000000000000000000000000000000000000000000000000000600052602260045260246000fd5b600060028204905060018216806200031b57607f821691505b602082108103620003315762000330620002d3565b5b50919050565b60008190508160005260206000209050919050565b60006020601f8301049050919050565b600082821b905092915050565b6000600883026200039b7fffffffffffffffffffffffffffffffffffffffffffffffffffffffffffffffff826200035c565b620003a786836200035c565b95508019841693508086168417925050509392505050565b6000819050919050565b6000819050919050565b6000620003f4620003ee620003e884620003bf565b620003c9565b620003bf565b9050919050565b6000819050919050565b6200041083620003d3565b620004286200041f82620003fb565b84845462000369565b825550505050565b600090565b6200043f62000430565b6200044c81848462000405565b505050565b5b8181101562000474576200046860008262000435565b60018101905062000452565b5050565b601f821115620004c3576200048d8162000337565b62000498846200034c565b81016020851015620004a8578190505b620004c0620004b7856200034c565b83018262000451565b50505b505050565b600082821c905092915050565b6000620004e860001984600802620004c8565b1980831691505092915050565b6000620005038383620004d5565b9150826002028217905092915050565b6200051e8262000299565b67ffffffffffffffff8111156200053a5762000539620002a4565b5b62000546825462000302565b6200055382828562000478565b600060209050601f8311600181146200058b576000841562000576578287015190505b620005828582620004f5565b865550620005f2565b601f1984166200059b8662000337565b60005b82811015620005c5578489015182556001820191506020850194506020810190506200059e565b86831015620005e55784890151620005e1601f891682620004d5565b8355505b6001600288020188555050505b505050505050565b600080fd5b6000819050919050565b6200061481620005ff565b81146200062057600080fd5b50565b600081519050620006348162000609565b92915050565b600060208284031215620006535762000652620005fa565b5b6000620006638482850162000623565b91505092915050565b610da0806200067c6000396000f3fe608060405234801561001057600080fd5b506004361061004c5760003560e01c80630f5b93fa146100515780633fad9ae01461006d57806372777d441461008b578063f6fd7fde146100a7575b600080fd5b61006b6004803603810190610066919061072d565b6100d7565b005b610075610195565b6040516100829190610837565b60405180910390f35b6100a560048036038101906100a09190610859565b610223565b005b6100c160048036038101906100bc91906108d8565b610359565b6040516100ce9190610837565b60405180910390f35b600660009054906101000a900473ffffffffffffffffffffffffffffffffffffffff1673ffffffffffffffffffffffffffffffffffffffff163373ffffffffffffffffffffffffffffffffffffffff1614610167576040517f08c379a000000000000000000000000000000000000000000000000000000000815260040161015e90610951565b60405180910390fd5b82600090816101769190610b7d565b508160019060046101889291906103fc565b5080600581905550505050565b600080546101a2906109a0565b80601f01602080910402602001604051908101604052809291908181526020018280546101ce906109a0565b801561021b5780601f106101f05761010080835404028352916020019161021b565b820191906000526020600020905b8154815290600101906020018083116101fe57829003601f168201915b505050505081565b600660009054906101000a900473ffffffffffffffffffffffffffffffffffffffff1673ffffffffffffffffffffffffffffffffffffffff163373ffffffffffffffffffffffffffffffffffffffff16036102b3576040517f08c379a00000000000000000000000000000000000000000000000000000000081526004016102aa90610c9b565b60405180910390fd5b600554816040516020016102c79190610cf7565b604051602081830303815290604052805190602001200361031e577f30b3ad7c3fcdaf30ac62f8d4163c218b5da0945d2241a6e33949238b5a18a202336040516103119190610d4f565b60405180910390a1610356565b7f255f2f5b72efe7e8abd6b3cea09cdd1165231c9627767bb9242a89ac39b609b73360405161034d9190610d4f565b60405180910390a15b50565b6001816004811061036957600080fd5b01600091509050805461037b906109a0565b80601f01602080910402602001604051908101604052809291908181526020018280546103a7906109a0565b80156103f45780601f106103c9576101008083540402835291602001916103f4565b820191906000526020600020905b8154815290600101906020018083116103d757829003601f168201915b505050505081565b8260048101928215610437579160200282015b828111156104365782518290816104269190610b7d565b509160200191906001019061040f565b5b5090506104449190610448565b5090565b5b80821115610468576000818161045f919061046c565b50600101610449565b5090565b508054610478906109a0565b6000825580601f1061048a57506104a9565b601f0160209004906000526020600020908101906104a891906104ac565b5b50565b5b808211156104c55760008160009055506001016104ad565b5090565b6000604051905090565b600080fd5b600080fd5b600080fd5b600080fd5b6000601f19601f8301169050919050565b7f4e487b7100000000000000000000000000000000000000000000000000000000600052604160045260246000fd5b610530826104e7565b810181811067ffffffffffffffff8211171561054f5761054e6104f8565b5b80604052505050565b60006105626104c9565b905061056e8282610527565b919050565b600067ffffffffffffffff82111561058e5761058d6104f8565b5b610597826104e7565b9050602081019050919050565b82818337600083830152505050565b60006105c66105c184610573565b610558565b9050828152602081018484840111156105e2576105e16104e2565b5b6105ed8482856105a4565b509392505050565b600082601f83011261060a576106096104dd565b5b813561061a8482602086016105b3565b91505092915050565b600067ffffffffffffffff82111561063e5761063d6104f8565b5b602082029050919050565b600080fd5b600061066161065c84610623565b610558565b9050806020840283018581111561067b5761067a610649565b5b835b818110156106c257803567ffffffffffffffff8111156106a05761069f6104dd565b5b8086016106ad89826105f5565b8552602085019450505060208101905061067d565b5050509392505050565b600082601f8301126106e1576106e06104dd565b5b60046106ee84828561064e565b91505092915050565b6000819050919050565b61070a816106f7565b811461071557600080fd5b50565b60008135905061072781610701565b92915050565b600080600060608486031215610746576107456104d3565b5b600084013567ffffffffffffffff811115610764576107636104d8565b5b610770868287016105f5565b935050602084013567ffffffffffffffff811115610791576107906104d8565b5b61079d868287016106cc565b92505060406107ae86828701610718565b9150509250925092565b600081519050919050565b600082825260208201905092915050565b60005b838110156107f25780820151818401526020810190506107d7565b60008484015250505050565b6000610809826107b8565b61081381856107c3565b93506108238185602086016107d4565b61082c816104e7565b840191505092915050565b6000602082019050818103600083015261085181846107fe565b905092915050565b60006020828403121561086f5761086e6104d3565b5b600082013567ffffffffffffffff81111561088d5761088c6104d8565b5b610899848285016105f5565b91505092915050565b6000819050919050565b6108b5816108a2565b81146108c057600080fd5b50565b6000813590506108d2816108ac565b92915050565b6000602082840312156108ee576108ed6104d3565b5b60006108fc848285016108c3565b91505092915050565b7f4f6e6c79206f776e65722063616e2075706461746520746865207175697a2e00600082015250565b600061093b601f836107c3565b915061094682610905565b602082019050919050565b6000602082019050818103600083015261096a8161092e565b9050919050565b7f4e487b7100000000000000000000000000000000000000000000000000000000600052602260045260246000fd5b600060028204905060018216806109b857607f821691505b6020821081036109cb576109ca610971565b5b50919050565b60008190508160005260206000209050919050565b60006020601f8301049050919050565b600082821b905092915050565b600060088302610a337fffffffffffffffffffffffffffffffffffffffffffffffffffffffffffffffff826109f6565b610a3d86836109f6565b95508019841693508086168417925050509392505050565b6000819050919050565b6000610a7a610a75610a70846108a2565b610a55565b6108a2565b9050919050565b6000819050919050565b610a9483610a5f565b610aa8610aa082610a81565b848454610a03565b825550505050565b600090565b610abd610ab0565b610ac8818484610a8b565b505050565b5b81811015610aec57610ae1600082610ab5565b600181019050610ace565b5050565b601f821115610b3157610b02816109d1565b610b0b846109e6565b81016020851015610b1a578190505b610b2e610b26856109e6565b830182610acd565b50505b505050565b600082821c905092915050565b6000610b5460001984600802610b36565b1980831691505092915050565b6000610b6d8383610b43565b9150826002028217905092915050565b610b86826107b8565b67ffffffffffffffff811115610b9f57610b9e6104f8565b5b610ba982546109a0565b610bb4828285610af0565b600060209050601f831160018114610be75760008415610bd5578287015190505b610bdf8582610b61565b865550610c47565b601f198416610bf5866109d1565b60005b82811015610c1d57848901518255600182019150602085019450602081019050610bf8565b86831015610c3a5784890151610c36601f891682610b43565b8355505b6001600288020188555050505b505050505050565b7f4f776e65722063616e6e6f7420616e7377657220746865207175697a2e000000600082015250565b6000610c85601d836107c3565b9150610c9082610c4f565b602082019050919050565b60006020820190508181036000830152610cb481610c78565b9050919050565b600081905092915050565b6000610cd1826107b8565b610cdb8185610cbb565b9350610ceb8185602086016107d4565b80840191505092915050565b6000610d038284610cc6565b915081905092915050565b600073ffffffffffffffffffffffffffffffffffffffff82169050919050565b6000610d3982610d0e565b9050919050565b610d4981610d2e565b82525050565b6000602082019050610d646000830184610d40565b9291505056fea2646970667358221220a206ab23c818257d67d712560506007d0ca51c98b07d2c014d4e4eb9ef8c505164736f6c634300081300335175656c20657374206c6520726573756c74617420646520273227202b2027332720656e204a617661536372697074203f",
  "linkReferences": {},
  "deployedLinkReferences": {}
}